{
  "_format": "hh-sol-artifact-1",
  "contractName": "onChain",
  "sourceName": "contracts/NFT_OnChain_Hosting_SVG.sol",
  "abi": [
    {
      "inputs": [],
      "stateMutability": "nonpayable",
      "type": "constructor"
    },
    {
      "anonymous": false,
      "inputs": [
        {
          "indexed": true,
          "internalType": "address",
          "name": "owner",
          "type": "address"
        },
        {
          "indexed": true,
          "internalType": "address",
          "name": "approved",
          "type": "address"
        },
        {
          "indexed": true,
          "internalType": "uint256",
          "name": "tokenId",
          "type": "uint256"
        }
      ],
      "name": "Approval",
      "type": "event"
    },
    {
      "anonymous": false,
      "inputs": [
        {
          "indexed": true,
          "internalType": "address",
          "name": "owner",
          "type": "address"
        },
        {
          "indexed": true,
          "internalType": "address",
          "name": "operator",
          "type": "address"
        },
        {
          "indexed": false,
          "internalType": "bool",
          "name": "approved",
          "type": "bool"
        }
      ],
      "name": "ApprovalForAll",
      "type": "event"
    },
    {
      "anonymous": false,
      "inputs": [
        {
          "indexed": true,
          "internalType": "address",
          "name": "from",
          "type": "address"
        },
        {
          "indexed": true,
          "internalType": "address",
          "name": "to",
          "type": "address"
        },
        {
          "indexed": true,
          "internalType": "uint256",
          "name": "tokenId",
          "type": "uint256"
        }
      ],
      "name": "Transfer",
      "type": "event"
    },
    {
      "inputs": [
        {
          "internalType": "address",
          "name": "to",
          "type": "address"
        },
        {
          "internalType": "uint256",
          "name": "tokenId",
          "type": "uint256"
        }
      ],
      "name": "approve",
      "outputs": [],
      "stateMutability": "nonpayable",
      "type": "function"
    },
    {
      "inputs": [
        {
          "internalType": "address",
          "name": "owner",
          "type": "address"
        }
      ],
      "name": "balanceOf",
      "outputs": [
        {
          "internalType": "uint256",
          "name": "",
          "type": "uint256"
        }
      ],
      "stateMutability": "view",
      "type": "function"
    },
    {
      "inputs": [
        {
          "internalType": "uint256",
          "name": "tokenId",
          "type": "uint256"
        }
      ],
      "name": "getApproved",
      "outputs": [
        {
          "internalType": "address",
          "name": "",
          "type": "address"
        }
      ],
      "stateMutability": "view",
      "type": "function"
    },
    {
      "inputs": [
        {
          "internalType": "address",
          "name": "owner",
          "type": "address"
        },
        {
          "internalType": "address",
          "name": "operator",
          "type": "address"
        }
      ],
      "name": "isApprovedForAll",
      "outputs": [
        {
          "internalType": "bool",
          "name": "",
          "type": "bool"
        }
      ],
      "stateMutability": "view",
      "type": "function"
    },
    {
      "inputs": [],
      "name": "mintTheNFT",
      "outputs": [],
      "stateMutability": "nonpayable",
      "type": "function"
    },
    {
      "inputs": [],
      "name": "name",
      "outputs": [
        {
          "internalType": "string",
          "name": "",
          "type": "string"
        }
      ],
      "stateMutability": "view",
      "type": "function"
    },
    {
      "inputs": [
        {
          "internalType": "uint256",
          "name": "tokenId",
          "type": "uint256"
        }
      ],
      "name": "ownerOf",
      "outputs": [
        {
          "internalType": "address",
          "name": "",
          "type": "address"
        }
      ],
      "stateMutability": "view",
      "type": "function"
    },
    {
      "inputs": [
        {
          "internalType": "address",
          "name": "from",
          "type": "address"
        },
        {
          "internalType": "address",
          "name": "to",
          "type": "address"
        },
        {
          "internalType": "uint256",
          "name": "tokenId",
          "type": "uint256"
        }
      ],
      "name": "safeTransferFrom",
      "outputs": [],
      "stateMutability": "nonpayable",
      "type": "function"
    },
    {
      "inputs": [
        {
          "internalType": "address",
          "name": "from",
          "type": "address"
        },
        {
          "internalType": "address",
          "name": "to",
          "type": "address"
        },
        {
          "internalType": "uint256",
          "name": "tokenId",
          "type": "uint256"
        },
        {
          "internalType": "bytes",
          "name": "data",
          "type": "bytes"
        }
      ],
      "name": "safeTransferFrom",
      "outputs": [],
      "stateMutability": "nonpayable",
      "type": "function"
    },
    {
      "inputs": [
        {
          "internalType": "address",
          "name": "operator",
          "type": "address"
        },
        {
          "internalType": "bool",
          "name": "approved",
          "type": "bool"
        }
      ],
      "name": "setApprovalForAll",
      "outputs": [],
      "stateMutability": "nonpayable",
      "type": "function"
    },
    {
      "inputs": [
        {
          "internalType": "bytes4",
          "name": "interfaceId",
          "type": "bytes4"
        }
      ],
      "name": "supportsInterface",
      "outputs": [
        {
          "internalType": "bool",
          "name": "",
          "type": "bool"
        }
      ],
      "stateMutability": "view",
      "type": "function"
    },
    {
      "inputs": [
        {
          "internalType": "string",
          "name": "svg",
          "type": "string"
        }
      ],
      "name": "svgToImageURI",
      "outputs": [
        {
          "internalType": "string",
          "name": "",
          "type": "string"
        }
      ],
      "stateMutability": "pure",
      "type": "function"
    },
    {
      "inputs": [],
      "name": "symbol",
      "outputs": [
        {
          "internalType": "string",
          "name": "",
          "type": "string"
        }
      ],
      "stateMutability": "view",
      "type": "function"
    },
    {
      "inputs": [
        {
          "internalType": "uint256",
          "name": "tokenId",
          "type": "uint256"
        }
      ],
      "name": "tokenURI",
      "outputs": [
        {
          "internalType": "string",
          "name": "",
          "type": "string"
        }
      ],
      "stateMutability": "view",
      "type": "function"
    },
    {
      "inputs": [
        {
          "internalType": "address",
          "name": "from",
          "type": "address"
        },
        {
          "internalType": "address",
          "name": "to",
          "type": "address"
        },
        {
          "internalType": "uint256",
          "name": "tokenId",
          "type": "uint256"
        }
      ],
      "name": "transferFrom",
      "outputs": [],
      "stateMutability": "nonpayable",
      "type": "function"
    }
  ],
  "bytecode": "0x60806040523480156200001157600080fd5b506040518060400160405280600981526020017f4252415a494c4e465400000000000000000000000000000000000000000000008152506040518060400160405280600681526020017f4252414e46540000000000000000000000000000000000000000000000000000815250816000908051906020019062000096929190620001cf565b508060019080519060200190620000af929190620001cf565b505050620000fd6040518060400160405280601981526020017f546865204e465420457468657265756d20436f6e7472616374000000000000008152506200010360201b62000bbf1760201c565b620003ac565b620001a3816040516024016200011a9190620002c0565b6040516020818303038152906040527f41304fac000000000000000000000000000000000000000000000000000000007bffffffffffffffffffffffffffffffffffffffffffffffffffffffff19166020820180517bffffffffffffffffffffffffffffffffffffffffffffffffffffffff8381831617835250505050620001a660201b60201c565b50565b60008151905060006a636f6e736f6c652e6c6f679050602083016000808483855afa5050505050565b828054620001dd9062000336565b90600052602060002090601f0160209004810192826200020157600085556200024d565b82601f106200021c57805160ff19168380011785556200024d565b828001600101855582156200024d579182015b828111156200024c5782518255916020019190600101906200022f565b5b5090506200025c919062000260565b5090565b5b808211156200027b57600081600090555060010162000261565b5090565b60006200028c82620002e4565b620002988185620002ef565b9350620002aa81856020860162000300565b620002b5816200039b565b840191505092915050565b60006020820190508181036000830152620002dc81846200027f565b905092915050565b600081519050919050565b600082825260208201905092915050565b60005b838110156200032057808201518184015260208101905062000303565b8381111562000330576000848401525b50505050565b600060028204905060018216806200034f57607f821691505b602082108114156200036657620003656200036c565b5b50919050565b7f4e487b7100000000000000000000000000000000000000000000000000000000600052602260045260246000fd5b6000601f19601f8301169050919050565b612dc880620003bc6000396000f3fe608060405234801561001057600080fd5b50600436106100f55760003560e01c806342842e0e11610097578063a22cb46511610066578063a22cb46514610284578063b88d4fde146102a0578063c87b56dd146102bc578063e985e9c5146102ec576100f5565b806342842e0e146101ea5780636352211e1461020657806370a082311461023657806395d89b4114610266576100f5565b8063095ea7b3116100d3578063095ea7b3146101785780632043881c1461019457806323b872dd1461019e57806330d871c6146101ba576100f5565b806301ffc9a7146100fa57806306fdde031461012a578063081812fc14610148575b600080fd5b610114600480360381019061010f9190611fc1565b61031c565b6040516101219190612393565b60405180910390f35b6101326103fe565b60405161013f91906123ae565b60405180910390f35b610162600480360381019061015d9190612054565b610490565b60405161016f919061232c565b60405180910390f35b610192600480360381019061018d9190611f85565b6104d6565b005b61019c6105ee565b005b6101b860048036038101906101b39190611e7f565b610691565b005b6101d460048036038101906101cf9190612013565b6106f1565b6040516101e191906123ae565b60405180910390f35b61020460048036038101906101ff9190611e7f565b610784565b005b610220600480360381019061021b9190612054565b6107a4565b60405161022d919061232c565b60405180910390f35b610250600480360381019061024b9190611e1a565b610856565b60405161025d9190612580565b60405180910390f35b61026e61090e565b60405161027b91906123ae565b60405180910390f35b61029e60048036038101906102999190611f49565b6109a0565b005b6102ba60048036038101906102b59190611ece565b6109b6565b005b6102d660048036038101906102d19190612054565b610a18565b6040516102e391906123ae565b60405180910390f35b61030660048036038101906103019190611e43565b610b2b565b6040516103139190612393565b60405180910390f35b60007f80ac58cd000000000000000000000000000000000000000000000000000000007bffffffffffffffffffffffffffffffffffffffffffffffffffffffff1916827bffffffffffffffffffffffffffffffffffffffffffffffffffffffff191614806103e757507f5b5e139f000000000000000000000000000000000000000000000000000000007bffffffffffffffffffffffffffffffffffffffffffffffffffffffff1916827bffffffffffffffffffffffffffffffffffffffffffffffffffffffff1916145b806103f757506103f682610c58565b5b9050919050565b60606000805461040d90612830565b80601f016020809104026020016040519081016040528092919081815260200182805461043990612830565b80156104865780601f1061045b57610100808354040283529160200191610486565b820191906000526020600020905b81548152906001019060200180831161046957829003601f168201915b5050505050905090565b600061049b82610cc2565b6004600083815260200190815260200160002060009054906101000a900473ffffffffffffffffffffffffffffffffffffffff169050919050565b60006104e1826107a4565b90508073ffffffffffffffffffffffffffffffffffffffff168373ffffffffffffffffffffffffffffffffffffffff161415610552576040517f08c379a000000000000000000000000000000000000000000000000000000000815260040161054990612540565b60405180910390fd5b8073ffffffffffffffffffffffffffffffffffffffff16610571610d0d565b73ffffffffffffffffffffffffffffffffffffffff1614806105a0575061059f8161059a610d0d565b610b2b565b5b6105df576040517f08c379a00000000000000000000000000000000000000000000000000000000081526004016105d6906124e0565b60405180910390fd5b6105e98383610d15565b505050565b60006105fa6007610dce565b905061063b6040518060400160405280601281526020017f746865206e667420746f6b656e2069733a20000000000000000000000000000081525082610ddc565b6106453382610e78565b610684816040518060400160405280601d81526020017f68747470733a2f2f6a736f6e6b65657065722e636f6d2f622f46414244000000815250610e96565b61068e6007610f0a565b50565b6106a261069c610d0d565b82610f20565b6106e1576040517f08c379a00000000000000000000000000000000000000000000000000000000081526004016106d890612560565b60405180910390fd5b6106ec838383610fb5565b505050565b606060006040518060400160405280601a81526020017f646174613a696d6167652f7376672b786d6c3b6261736536342c000000000000815250905060006107578460405160200161074391906122f1565b60405160208183030381529060405261121c565b9050818160405160200161076c929190612308565b60405160208183030381529060405292505050919050565b61079f838383604051806020016040528060008152506109b6565b505050565b6000806002600084815260200190815260200160002060009054906101000a900473ffffffffffffffffffffffffffffffffffffffff169050600073ffffffffffffffffffffffffffffffffffffffff168173ffffffffffffffffffffffffffffffffffffffff16141561084d576040517f08c379a000000000000000000000000000000000000000000000000000000000815260040161084490612520565b60405180910390fd5b80915050919050565b60008073ffffffffffffffffffffffffffffffffffffffff168273ffffffffffffffffffffffffffffffffffffffff1614156108c7576040517f08c379a00000000000000000000000000000000000000000000000000000000081526004016108be906124a0565b60405180910390fd5b600360008373ffffffffffffffffffffffffffffffffffffffff1673ffffffffffffffffffffffffffffffffffffffff168152602001908152602001600020549050919050565b60606001805461091d90612830565b80601f016020809104026020016040519081016040528092919081815260200182805461094990612830565b80156109965780601f1061096b57610100808354040283529160200191610996565b820191906000526020600020905b81548152906001019060200180831161097957829003601f168201915b5050505050905090565b6109b26109ab610d0d565b83836113bb565b5050565b6109c76109c1610d0d565b83610f20565b610a06576040517f08c379a00000000000000000000000000000000000000000000000000000000081526004016109fd90612560565b60405180910390fd5b610a1284848484611528565b50505050565b6060610a2382610cc2565b6000600660008481526020019081526020016000208054610a4390612830565b80601f0160208091040260200160405190810160405280929190818152602001828054610a6f90612830565b8015610abc5780601f10610a9157610100808354040283529160200191610abc565b820191906000526020600020905b815481529060010190602001808311610a9f57829003601f168201915b505050505090506000610acd611584565b9050600081511415610ae3578192505050610b26565b600082511115610b18578082604051602001610b00929190612308565b60405160208183030381529060405292505050610b26565b610b218461159b565b925050505b919050565b6000600560008473ffffffffffffffffffffffffffffffffffffffff1673ffffffffffffffffffffffffffffffffffffffff16815260200190815260200160002060008373ffffffffffffffffffffffffffffffffffffffff1673ffffffffffffffffffffffffffffffffffffffff16815260200190815260200160002060009054906101000a900460ff16905092915050565b610c5581604051602401610bd391906123ae565b6040516020818303038152906040527f41304fac000000000000000000000000000000000000000000000000000000007bffffffffffffffffffffffffffffffffffffffffffffffffffffffff19166020820180517bffffffffffffffffffffffffffffffffffffffffffffffffffffffff8381831617835250505050611603565b50565b60007f01ffc9a7000000000000000000000000000000000000000000000000000000007bffffffffffffffffffffffffffffffffffffffffffffffffffffffff1916827bffffffffffffffffffffffffffffffffffffffffffffffffffffffff1916149050919050565b610ccb8161162c565b610d0a576040517f08c379a0000000000000000000000000000000000000000000000000000000008152600401610d0190612520565b60405180910390fd5b50565b600033905090565b816004600083815260200190815260200160002060006101000a81548173ffffffffffffffffffffffffffffffffffffffff021916908373ffffffffffffffffffffffffffffffffffffffff160217905550808273ffffffffffffffffffffffffffffffffffffffff16610d88836107a4565b73ffffffffffffffffffffffffffffffffffffffff167f8c5be1e5ebec7d5bd14f71427d1e84f3dd0314c0f7b2291e5b200ac8c7c3b92560405160405180910390a45050565b600081600001549050919050565b610e748282604051602401610df29291906123d0565b6040516020818303038152906040527f9710a9d0000000000000000000000000000000000000000000000000000000007bffffffffffffffffffffffffffffffffffffffffffffffffffffffff19166020820180517bffffffffffffffffffffffffffffffffffffffffffffffffffffffff8381831617835250505050611603565b5050565b610e92828260405180602001604052806000815250611698565b5050565b610e9f8261162c565b610ede576040517f08c379a0000000000000000000000000000000000000000000000000000000008152600401610ed5906124c0565b60405180910390fd5b80600660008481526020019081526020016000209080519060200190610f05929190611c3e565b505050565b6001816000016000828254019250508190555050565b600080610f2c836107a4565b90508073ffffffffffffffffffffffffffffffffffffffff168473ffffffffffffffffffffffffffffffffffffffff161480610f6e5750610f6d8185610b2b565b5b80610fac57508373ffffffffffffffffffffffffffffffffffffffff16610f9484610490565b73ffffffffffffffffffffffffffffffffffffffff16145b91505092915050565b8273ffffffffffffffffffffffffffffffffffffffff16610fd5826107a4565b73ffffffffffffffffffffffffffffffffffffffff161461102b576040517f08c379a000000000000000000000000000000000000000000000000000000000815260040161102290612420565b60405180910390fd5b600073ffffffffffffffffffffffffffffffffffffffff168273ffffffffffffffffffffffffffffffffffffffff16141561109b576040517f08c379a000000000000000000000000000000000000000000000000000000000815260040161109290612460565b60405180910390fd5b6110a68383836116f3565b6110b1600082610d15565b6001600360008573ffffffffffffffffffffffffffffffffffffffff1673ffffffffffffffffffffffffffffffffffffffff16815260200190815260200160002060008282546111019190612746565b925050819055506001600360008473ffffffffffffffffffffffffffffffffffffffff1673ffffffffffffffffffffffffffffffffffffffff16815260200190815260200160002060008282546111589190612665565b92505081905550816002600083815260200190815260200160002060006101000a81548173ffffffffffffffffffffffffffffffffffffffff021916908373ffffffffffffffffffffffffffffffffffffffff160217905550808273ffffffffffffffffffffffffffffffffffffffff168473ffffffffffffffffffffffffffffffffffffffff167fddf252ad1be2c89b69c2b068fc378daa952ba7f163c4a11628f55a4df523b3ef60405160405180910390a46112178383836116f8565b505050565b606060008251141561123f576040518060200160405280600081525090506113b6565b6000604051806060016040528060408152602001612d53604091399050600060036002855161126e9190612665565b61127891906126bb565b600461128491906126ec565b905060006020826112959190612665565b67ffffffffffffffff8111156112d4577f4e487b7100000000000000000000000000000000000000000000000000000000600052604160045260246000fd5b6040519080825280601f01601f1916602001820160405280156113065781602001600182028036833780820191505090505b509050818152600183018586518101602084015b81831015611375576003830192508251603f8160121c168501518253600182019150603f81600c1c168501518253600182019150603f8160061c168501518253600182019150603f811685015182536001820191505061131a565b60038951066001811461138f576002811461139f576113aa565b613d3d60f01b60028303526113aa565b603d60f81b60018303525b50505050508093505050505b919050565b8173ffffffffffffffffffffffffffffffffffffffff168373ffffffffffffffffffffffffffffffffffffffff16141561142a576040517f08c379a000000000000000000000000000000000000000000000000000000000815260040161142190612480565b60405180910390fd5b80600560008573ffffffffffffffffffffffffffffffffffffffff1673ffffffffffffffffffffffffffffffffffffffff16815260200190815260200160002060008473ffffffffffffffffffffffffffffffffffffffff1673ffffffffffffffffffffffffffffffffffffffff16815260200190815260200160002060006101000a81548160ff0219169083151502179055508173ffffffffffffffffffffffffffffffffffffffff168373ffffffffffffffffffffffffffffffffffffffff167f17307eab39ab6107e8899845ad3d59bd9653f200f220920489ca2b5937696c318360405161151b9190612393565b60405180910390a3505050565b611533848484610fb5565b61153f848484846116fd565b61157e576040517f08c379a000000000000000000000000000000000000000000000000000000000815260040161157590612400565b60405180910390fd5b50505050565b606060405180602001604052806000815250905090565b60606115a682610cc2565b60006115b0611584565b905060008151116115d057604051806020016040528060008152506115fb565b806115da84611894565b6040516020016115eb929190612308565b6040516020818303038152906040525b915050919050565b60008151905060006a636f6e736f6c652e6c6f679050602083016000808483855afa5050505050565b60008073ffffffffffffffffffffffffffffffffffffffff166002600084815260200190815260200160002060009054906101000a900473ffffffffffffffffffffffffffffffffffffffff1673ffffffffffffffffffffffffffffffffffffffff1614159050919050565b6116a28383611a41565b6116af60008484846116fd565b6116ee576040517f08c379a00000000000000000000000000000000000000000000000000000000081526004016116e590612400565b60405180910390fd5b505050565b505050565b505050565b600061171e8473ffffffffffffffffffffffffffffffffffffffff16611c1b565b15611887578373ffffffffffffffffffffffffffffffffffffffff1663150b7a02611747610d0d565b8786866040518563ffffffff1660e01b81526004016117699493929190612347565b602060405180830381600087803b15801561178357600080fd5b505af19250505080156117b457506040513d601f19601f820116820180604052508101906117b19190611fea565b60015b611837573d80600081146117e4576040519150601f19603f3d011682016040523d82523d6000602084013e6117e9565b606091505b5060008151141561182f576040517f08c379a000000000000000000000000000000000000000000000000000000000815260040161182690612400565b60405180910390fd5b805181602001fd5b63150b7a0260e01b7bffffffffffffffffffffffffffffffffffffffffffffffffffffffff1916817bffffffffffffffffffffffffffffffffffffffffffffffffffffffff19161491505061188c565b600190505b949350505050565b606060008214156118dc576040518060400160405280600181526020017f30000000000000000000000000000000000000000000000000000000000000008152509050611a3c565b600082905060005b6000821461190e5780806118f790612893565b915050600a8261190791906126bb565b91506118e4565b60008167ffffffffffffffff811115611950577f4e487b7100000000000000000000000000000000000000000000000000000000600052604160045260246000fd5b6040519080825280601f01601f1916602001820160405280156119825781602001600182028036833780820191505090505b5090505b60008514611a355760018261199b9190612746565b9150600a856119aa91906128dc565b60306119b69190612665565b60f81b8183815181106119f2577f4e487b7100000000000000000000000000000000000000000000000000000000600052603260045260246000fd5b60200101907effffffffffffffffffffffffffffffffffffffffffffffffffffffffffffff1916908160001a905350600a85611a2e91906126bb565b9450611986565b8093505050505b919050565b600073ffffffffffffffffffffffffffffffffffffffff168273ffffffffffffffffffffffffffffffffffffffff161415611ab1576040517f08c379a0000000000000000000000000000000000000000000000000000000008152600401611aa890612500565b60405180910390fd5b611aba8161162c565b15611afa576040517f08c379a0000000000000000000000000000000000000000000000000000000008152600401611af190612440565b60405180910390fd5b611b06600083836116f3565b6001600360008473ffffffffffffffffffffffffffffffffffffffff1673ffffffffffffffffffffffffffffffffffffffff1681526020019081526020016000206000828254611b569190612665565b92505081905550816002600083815260200190815260200160002060006101000a81548173ffffffffffffffffffffffffffffffffffffffff021916908373ffffffffffffffffffffffffffffffffffffffff160217905550808273ffffffffffffffffffffffffffffffffffffffff16600073ffffffffffffffffffffffffffffffffffffffff167fddf252ad1be2c89b69c2b068fc378daa952ba7f163c4a11628f55a4df523b3ef60405160405180910390a4611c17600083836116f8565b5050565b6000808273ffffffffffffffffffffffffffffffffffffffff163b119050919050565b828054611c4a90612830565b90600052602060002090601f016020900481019282611c6c5760008555611cb3565b82601f10611c8557805160ff1916838001178555611cb3565b82800160010185558215611cb3579182015b82811115611cb2578251825591602001919060010190611c97565b5b509050611cc09190611cc4565b5090565b5b80821115611cdd576000816000905550600101611cc5565b5090565b6000611cf4611cef846125c0565b61259b565b905082815260208101848484011115611d0c57600080fd5b611d178482856127ee565b509392505050565b6000611d32611d2d846125f1565b61259b565b905082815260208101848484011115611d4a57600080fd5b611d558482856127ee565b509392505050565b600081359050611d6c81612cf6565b92915050565b600081359050611d8181612d0d565b92915050565b600081359050611d9681612d24565b92915050565b600081519050611dab81612d24565b92915050565b600082601f830112611dc257600080fd5b8135611dd2848260208601611ce1565b91505092915050565b600082601f830112611dec57600080fd5b8135611dfc848260208601611d1f565b91505092915050565b600081359050611e1481612d3b565b92915050565b600060208284031215611e2c57600080fd5b6000611e3a84828501611d5d565b91505092915050565b60008060408385031215611e5657600080fd5b6000611e6485828601611d5d565b9250506020611e7585828601611d5d565b9150509250929050565b600080600060608486031215611e9457600080fd5b6000611ea286828701611d5d565b9350506020611eb386828701611d5d565b9250506040611ec486828701611e05565b9150509250925092565b60008060008060808587031215611ee457600080fd5b6000611ef287828801611d5d565b9450506020611f0387828801611d5d565b9350506040611f1487828801611e05565b925050606085013567ffffffffffffffff811115611f3157600080fd5b611f3d87828801611db1565b91505092959194509250565b60008060408385031215611f5c57600080fd5b6000611f6a85828601611d5d565b9250506020611f7b85828601611d72565b9150509250929050565b60008060408385031215611f9857600080fd5b6000611fa685828601611d5d565b9250506020611fb785828601611e05565b9150509250929050565b600060208284031215611fd357600080fd5b6000611fe184828501611d87565b91505092915050565b600060208284031215611ffc57600080fd5b600061200a84828501611d9c565b91505092915050565b60006020828403121561202557600080fd5b600082013567ffffffffffffffff81111561203f57600080fd5b61204b84828501611ddb565b91505092915050565b60006020828403121561206657600080fd5b600061207484828501611e05565b91505092915050565b6120868161277a565b82525050565b6120958161278c565b82525050565b60006120a682612622565b6120b08185612638565b93506120c08185602086016127fd565b6120c9816129c9565b840191505092915050565b60006120df8261262d565b6120e98185612649565b93506120f98185602086016127fd565b612102816129c9565b840191505092915050565b60006121188261262d565b612122818561265a565b93506121328185602086016127fd565b80840191505092915050565b600061214b603283612649565b9150612156826129da565b604082019050919050565b600061216e602583612649565b915061217982612a29565b604082019050919050565b6000612191601c83612649565b915061219c82612a78565b602082019050919050565b60006121b4602483612649565b91506121bf82612aa1565b604082019050919050565b60006121d7601983612649565b91506121e282612af0565b602082019050919050565b60006121fa602983612649565b915061220582612b19565b604082019050919050565b600061221d602e83612649565b915061222882612b68565b604082019050919050565b6000612240603e83612649565b915061224b82612bb7565b604082019050919050565b6000612263602083612649565b915061226e82612c06565b602082019050919050565b6000612286601883612649565b915061229182612c2f565b602082019050919050565b60006122a9602183612649565b91506122b482612c58565b604082019050919050565b60006122cc602e83612649565b91506122d782612ca7565b604082019050919050565b6122eb816127e4565b82525050565b60006122fd828461210d565b915081905092915050565b6000612314828561210d565b9150612320828461210d565b91508190509392505050565b6000602082019050612341600083018461207d565b92915050565b600060808201905061235c600083018761207d565b612369602083018661207d565b61237660408301856122e2565b8181036060830152612388818461209b565b905095945050505050565b60006020820190506123a8600083018461208c565b92915050565b600060208201905081810360008301526123c881846120d4565b905092915050565b600060408201905081810360008301526123ea81856120d4565b90506123f960208301846122e2565b9392505050565b600060208201905081810360008301526124198161213e565b9050919050565b6000602082019050818103600083015261243981612161565b9050919050565b6000602082019050818103600083015261245981612184565b9050919050565b60006020820190508181036000830152612479816121a7565b9050919050565b60006020820190508181036000830152612499816121ca565b9050919050565b600060208201905081810360008301526124b9816121ed565b9050919050565b600060208201905081810360008301526124d981612210565b9050919050565b600060208201905081810360008301526124f981612233565b9050919050565b6000602082019050818103600083015261251981612256565b9050919050565b6000602082019050818103600083015261253981612279565b9050919050565b600060208201905081810360008301526125598161229c565b9050919050565b60006020820190508181036000830152612579816122bf565b9050919050565b600060208201905061259560008301846122e2565b92915050565b60006125a56125b6565b90506125b18282612862565b919050565b6000604051905090565b600067ffffffffffffffff8211156125db576125da61299a565b5b6125e4826129c9565b9050602081019050919050565b600067ffffffffffffffff82111561260c5761260b61299a565b5b612615826129c9565b9050602081019050919050565b600081519050919050565b600081519050919050565b600082825260208201905092915050565b600082825260208201905092915050565b600081905092915050565b6000612670826127e4565b915061267b836127e4565b9250827fffffffffffffffffffffffffffffffffffffffffffffffffffffffffffffffff038211156126b0576126af61290d565b5b828201905092915050565b60006126c6826127e4565b91506126d1836127e4565b9250826126e1576126e061293c565b5b828204905092915050565b60006126f7826127e4565b9150612702836127e4565b9250817fffffffffffffffffffffffffffffffffffffffffffffffffffffffffffffffff048311821515161561273b5761273a61290d565b5b828202905092915050565b6000612751826127e4565b915061275c836127e4565b92508282101561276f5761276e61290d565b5b828203905092915050565b6000612785826127c4565b9050919050565b60008115159050919050565b60007fffffffff0000000000000000000000000000000000000000000000000000000082169050919050565b600073ffffffffffffffffffffffffffffffffffffffff82169050919050565b6000819050919050565b82818337600083830152505050565b60005b8381101561281b578082015181840152602081019050612800565b8381111561282a576000848401525b50505050565b6000600282049050600182168061284857607f821691505b6020821081141561285c5761285b61296b565b5b50919050565b61286b826129c9565b810181811067ffffffffffffffff8211171561288a5761288961299a565b5b80604052505050565b600061289e826127e4565b91507fffffffffffffffffffffffffffffffffffffffffffffffffffffffffffffffff8214156128d1576128d061290d565b5b600182019050919050565b60006128e7826127e4565b91506128f2836127e4565b9250826129025761290161293c565b5b828206905092915050565b7f4e487b7100000000000000000000000000000000000000000000000000000000600052601160045260246000fd5b7f4e487b7100000000000000000000000000000000000000000000000000000000600052601260045260246000fd5b7f4e487b7100000000000000000000000000000000000000000000000000000000600052602260045260246000fd5b7f4e487b7100000000000000000000000000000000000000000000000000000000600052604160045260246000fd5b6000601f19601f8301169050919050565b7f4552433732313a207472616e7366657220746f206e6f6e20455243373231526560008201527f63656976657220696d706c656d656e7465720000000000000000000000000000602082015250565b7f4552433732313a207472616e736665722066726f6d20696e636f72726563742060008201527f6f776e6572000000000000000000000000000000000000000000000000000000602082015250565b7f4552433732313a20746f6b656e20616c7265616479206d696e74656400000000600082015250565b7f4552433732313a207472616e7366657220746f20746865207a65726f2061646460008201527f7265737300000000000000000000000000000000000000000000000000000000602082015250565b7f4552433732313a20617070726f766520746f2063616c6c657200000000000000600082015250565b7f4552433732313a2061646472657373207a65726f206973206e6f74206120766160008201527f6c6964206f776e65720000000000000000000000000000000000000000000000602082015250565b7f45524337323155524953746f726167653a2055524920736574206f66206e6f6e60008201527f6578697374656e7420746f6b656e000000000000000000000000000000000000602082015250565b7f4552433732313a20617070726f76652063616c6c6572206973206e6f7420746f60008201527f6b656e206f776e6572206e6f7220617070726f76656420666f7220616c6c0000602082015250565b7f4552433732313a206d696e7420746f20746865207a65726f2061646472657373600082015250565b7f4552433732313a20696e76616c696420746f6b656e2049440000000000000000600082015250565b7f4552433732313a20617070726f76616c20746f2063757272656e74206f776e6560008201527f7200000000000000000000000000000000000000000000000000000000000000602082015250565b7f4552433732313a2063616c6c6572206973206e6f7420746f6b656e206f776e6560008201527f72206e6f7220617070726f766564000000000000000000000000000000000000602082015250565b612cff8161277a565b8114612d0a57600080fd5b50565b612d168161278c565b8114612d2157600080fd5b50565b612d2d81612798565b8114612d3857600080fd5b50565b612d44816127e4565b8114612d4f57600080fd5b5056fe4142434445464748494a4b4c4d4e4f505152535455565758595a6162636465666768696a6b6c6d6e6f707172737475767778797a303132333435363738392b2fa264697066735822122006536a73218725f2ce5d7606fde1c9e9e8c8ee9029f33dd90599e706f482532464736f6c63430008010033",
  "linkReferences": {},
  "deployedLinkReferences": {}
}