{
  "_format": "hh-sol-artifact-1",
  "contractName": "onChain",
  "sourceName": "contracts/NFT_OnChain_Hosting_SVG.sol",
  "abi": [
    {
      "inputs": [],
      "stateMutability": "nonpayable",
      "type": "constructor"
    },
    {
      "anonymous": false,
      "inputs": [
        {
          "indexed": true,
          "internalType": "address",
          "name": "owner",
          "type": "address"
        },
        {
          "indexed": true,
          "internalType": "address",
          "name": "approved",
          "type": "address"
        },
        {
          "indexed": true,
          "internalType": "uint256",
          "name": "tokenId",
          "type": "uint256"
        }
      ],
      "name": "Approval",
      "type": "event"
    },
    {
      "anonymous": false,
      "inputs": [
        {
          "indexed": true,
          "internalType": "address",
          "name": "owner",
          "type": "address"
        },
        {
          "indexed": true,
          "internalType": "address",
          "name": "operator",
          "type": "address"
        },
        {
          "indexed": false,
          "internalType": "bool",
          "name": "approved",
          "type": "bool"
        }
      ],
      "name": "ApprovalForAll",
      "type": "event"
    },
    {
      "anonymous": false,
      "inputs": [
        {
          "indexed": true,
          "internalType": "address",
          "name": "from",
          "type": "address"
        },
        {
          "indexed": true,
          "internalType": "address",
          "name": "to",
          "type": "address"
        },
        {
          "indexed": true,
          "internalType": "uint256",
          "name": "tokenId",
          "type": "uint256"
        }
      ],
      "name": "Transfer",
      "type": "event"
    },
    {
      "inputs": [
        {
          "internalType": "address",
          "name": "to",
          "type": "address"
        },
        {
          "internalType": "uint256",
          "name": "tokenId",
          "type": "uint256"
        }
      ],
      "name": "approve",
      "outputs": [],
      "stateMutability": "nonpayable",
      "type": "function"
    },
    {
      "inputs": [
        {
          "internalType": "address",
          "name": "owner",
          "type": "address"
        }
      ],
      "name": "balanceOf",
      "outputs": [
        {
          "internalType": "uint256",
          "name": "",
          "type": "uint256"
        }
      ],
      "stateMutability": "view",
      "type": "function"
    },
    {
      "inputs": [
        {
          "internalType": "uint256",
          "name": "tokenId",
          "type": "uint256"
        }
      ],
      "name": "getApproved",
      "outputs": [
        {
          "internalType": "address",
          "name": "",
          "type": "address"
        }
      ],
      "stateMutability": "view",
      "type": "function"
    },
    {
      "inputs": [
        {
          "internalType": "address",
          "name": "owner",
          "type": "address"
        },
        {
          "internalType": "address",
          "name": "operator",
          "type": "address"
        }
      ],
      "name": "isApprovedForAll",
      "outputs": [
        {
          "internalType": "bool",
          "name": "",
          "type": "bool"
        }
      ],
      "stateMutability": "view",
      "type": "function"
    },
    {
      "inputs": [],
      "name": "mintTheNFT",
      "outputs": [],
      "stateMutability": "nonpayable",
      "type": "function"
    },
    {
      "inputs": [],
      "name": "name",
      "outputs": [
        {
          "internalType": "string",
          "name": "",
          "type": "string"
        }
      ],
      "stateMutability": "view",
      "type": "function"
    },
    {
      "inputs": [
        {
          "internalType": "uint256",
          "name": "tokenId",
          "type": "uint256"
        }
      ],
      "name": "ownerOf",
      "outputs": [
        {
          "internalType": "address",
          "name": "",
          "type": "address"
        }
      ],
      "stateMutability": "view",
      "type": "function"
    },
    {
      "inputs": [
        {
          "internalType": "address",
          "name": "from",
          "type": "address"
        },
        {
          "internalType": "address",
          "name": "to",
          "type": "address"
        },
        {
          "internalType": "uint256",
          "name": "tokenId",
          "type": "uint256"
        }
      ],
      "name": "safeTransferFrom",
      "outputs": [],
      "stateMutability": "nonpayable",
      "type": "function"
    },
    {
      "inputs": [
        {
          "internalType": "address",
          "name": "from",
          "type": "address"
        },
        {
          "internalType": "address",
          "name": "to",
          "type": "address"
        },
        {
          "internalType": "uint256",
          "name": "tokenId",
          "type": "uint256"
        },
        {
          "internalType": "bytes",
          "name": "data",
          "type": "bytes"
        }
      ],
      "name": "safeTransferFrom",
      "outputs": [],
      "stateMutability": "nonpayable",
      "type": "function"
    },
    {
      "inputs": [
        {
          "internalType": "address",
          "name": "operator",
          "type": "address"
        },
        {
          "internalType": "bool",
          "name": "approved",
          "type": "bool"
        }
      ],
      "name": "setApprovalForAll",
      "outputs": [],
      "stateMutability": "nonpayable",
      "type": "function"
    },
    {
      "inputs": [
        {
          "internalType": "bytes4",
          "name": "interfaceId",
          "type": "bytes4"
        }
      ],
      "name": "supportsInterface",
      "outputs": [
        {
          "internalType": "bool",
          "name": "",
          "type": "bool"
        }
      ],
      "stateMutability": "view",
      "type": "function"
    },
    {
      "inputs": [],
      "name": "symbol",
      "outputs": [
        {
          "internalType": "string",
          "name": "",
          "type": "string"
        }
      ],
      "stateMutability": "view",
      "type": "function"
    },
    {
      "inputs": [
        {
          "internalType": "uint256",
          "name": "tokenId",
          "type": "uint256"
        }
      ],
      "name": "tokenURI",
      "outputs": [
        {
          "internalType": "string",
          "name": "",
          "type": "string"
        }
      ],
      "stateMutability": "view",
      "type": "function"
    },
    {
      "inputs": [
        {
          "internalType": "address",
          "name": "from",
          "type": "address"
        },
        {
          "internalType": "address",
          "name": "to",
          "type": "address"
        },
        {
          "internalType": "uint256",
          "name": "tokenId",
          "type": "uint256"
        }
      ],
      "name": "transferFrom",
      "outputs": [],
      "stateMutability": "nonpayable",
      "type": "function"
    }
  ],
  "bytecode": "0x60806040523480156200001157600080fd5b506040518060400160405280600981526020017f4252415a494c4e465400000000000000000000000000000000000000000000008152506040518060400160405280600681526020017f4252414e46540000000000000000000000000000000000000000000000000000815250816000908051906020019062000096929190620001cf565b508060019080519060200190620000af929190620001cf565b505050620000fd6040518060400160405280601981526020017f546865204e465420457468657265756d20436f6e7472616374000000000000008152506200010360201b62000af11760201c565b620003ac565b620001a3816040516024016200011a9190620002c0565b6040516020818303038152906040527f41304fac000000000000000000000000000000000000000000000000000000007bffffffffffffffffffffffffffffffffffffffffffffffffffffffff19166020820180517bffffffffffffffffffffffffffffffffffffffffffffffffffffffff8381831617835250505050620001a660201b60201c565b50565b60008151905060006a636f6e736f6c652e6c6f679050602083016000808483855afa5050505050565b828054620001dd9062000336565b90600052602060002090601f0160209004810192826200020157600085556200024d565b82601f106200021c57805160ff19168380011785556200024d565b828001600101855582156200024d579182015b828111156200024c5782518255916020019190600101906200022f565b5b5090506200025c919062000260565b5090565b5b808211156200027b57600081600090555060010162000261565b5090565b60006200028c82620002e4565b620002988185620002ef565b9350620002aa81856020860162000300565b620002b5816200039b565b840191505092915050565b60006020820190508181036000830152620002dc81846200027f565b905092915050565b600081519050919050565b600082825260208201905092915050565b60005b838110156200032057808201518184015260208101905062000303565b8381111562000330576000848401525b50505050565b600060028204905060018216806200034f57607f821691505b602082108114156200036657620003656200036c565b5b50919050565b7f4e487b7100000000000000000000000000000000000000000000000000000000600052602260045260246000fd5b6000601f19601f8301169050919050565b6129d080620003bc6000396000f3fe608060405234801561001057600080fd5b50600436106100ea5760003560e01c80636352211e1161008c578063a22cb46511610066578063a22cb46514610249578063b88d4fde14610265578063c87b56dd14610281578063e985e9c5146102b1576100ea565b80636352211e146101cb57806370a08231146101fb57806395d89b411461022b576100ea565b8063095ea7b3116100c8578063095ea7b31461016d5780632043881c1461018957806323b872dd1461019357806342842e0e146101af576100ea565b806301ffc9a7146100ef57806306fdde031461011f578063081812fc1461013d575b600080fd5b61010960048036038101906101049190611cec565b6102e1565b6040516101169190612066565b60405180910390f35b6101276103c3565b6040516101349190612081565b60405180910390f35b61015760048036038101906101529190611d3e565b610455565b6040516101649190611fff565b60405180910390f35b61018760048036038101906101829190611cb0565b61049b565b005b6101916105b3565b005b6101ad60048036038101906101a89190611baa565b610656565b005b6101c960048036038101906101c49190611baa565b6106b6565b005b6101e560048036038101906101e09190611d3e565b6106d6565b6040516101f29190611fff565b60405180910390f35b61021560048036038101906102109190611b45565b610788565b6040516102229190612253565b60405180910390f35b610233610840565b6040516102409190612081565b60405180910390f35b610263600480360381019061025e9190611c74565b6108d2565b005b61027f600480360381019061027a9190611bf9565b6108e8565b005b61029b60048036038101906102969190611d3e565b61094a565b6040516102a89190612081565b60405180910390f35b6102cb60048036038101906102c69190611b6e565b610a5d565b6040516102d89190612066565b60405180910390f35b60007f80ac58cd000000000000000000000000000000000000000000000000000000007bffffffffffffffffffffffffffffffffffffffffffffffffffffffff1916827bffffffffffffffffffffffffffffffffffffffffffffffffffffffff191614806103ac57507f5b5e139f000000000000000000000000000000000000000000000000000000007bffffffffffffffffffffffffffffffffffffffffffffffffffffffff1916827bffffffffffffffffffffffffffffffffffffffffffffffffffffffff1916145b806103bc57506103bb82610b8a565b5b9050919050565b6060600080546103d290612478565b80601f01602080910402602001604051908101604052809291908181526020018280546103fe90612478565b801561044b5780601f106104205761010080835404028352916020019161044b565b820191906000526020600020905b81548152906001019060200180831161042e57829003601f168201915b5050505050905090565b600061046082610bf4565b6004600083815260200190815260200160002060009054906101000a900473ffffffffffffffffffffffffffffffffffffffff169050919050565b60006104a6826106d6565b90508073ffffffffffffffffffffffffffffffffffffffff168373ffffffffffffffffffffffffffffffffffffffff161415610517576040517f08c379a000000000000000000000000000000000000000000000000000000000815260040161050e90612213565b60405180910390fd5b8073ffffffffffffffffffffffffffffffffffffffff16610536610c3f565b73ffffffffffffffffffffffffffffffffffffffff16148061056557506105648161055f610c3f565b610a5d565b5b6105a4576040517f08c379a000000000000000000000000000000000000000000000000000000000815260040161059b906121b3565b60405180910390fd5b6105ae8383610c47565b505050565b60006105bf6007610d00565b90506106006040518060400160405280601281526020017f746865206e667420746f6b656e2069733a20000000000000000000000000000081525082610d0e565b61060a3382610daa565b610649816040518060400160405280601d81526020017f68747470733a2f2f6a736f6e6b65657065722e636f6d2f622f46414244000000815250610dc8565b6106536007610e3c565b50565b610667610661610c3f565b82610e52565b6106a6576040517f08c379a000000000000000000000000000000000000000000000000000000000815260040161069d90612233565b60405180910390fd5b6106b1838383610ee7565b505050565b6106d1838383604051806020016040528060008152506108e8565b505050565b6000806002600084815260200190815260200160002060009054906101000a900473ffffffffffffffffffffffffffffffffffffffff169050600073ffffffffffffffffffffffffffffffffffffffff168173ffffffffffffffffffffffffffffffffffffffff16141561077f576040517f08c379a0000000000000000000000000000000000000000000000000000000008152600401610776906121f3565b60405180910390fd5b80915050919050565b60008073ffffffffffffffffffffffffffffffffffffffff168273ffffffffffffffffffffffffffffffffffffffff1614156107f9576040517f08c379a00000000000000000000000000000000000000000000000000000000081526004016107f090612173565b60405180910390fd5b600360008373ffffffffffffffffffffffffffffffffffffffff1673ffffffffffffffffffffffffffffffffffffffff168152602001908152602001600020549050919050565b60606001805461084f90612478565b80601f016020809104026020016040519081016040528092919081815260200182805461087b90612478565b80156108c85780601f1061089d576101008083540402835291602001916108c8565b820191906000526020600020905b8154815290600101906020018083116108ab57829003601f168201915b5050505050905090565b6108e46108dd610c3f565b838361114e565b5050565b6108f96108f3610c3f565b83610e52565b610938576040517f08c379a000000000000000000000000000000000000000000000000000000000815260040161092f90612233565b60405180910390fd5b610944848484846112bb565b50505050565b606061095582610bf4565b600060066000848152602001908152602001600020805461097590612478565b80601f01602080910402602001604051908101604052809291908181526020018280546109a190612478565b80156109ee5780601f106109c3576101008083540402835291602001916109ee565b820191906000526020600020905b8154815290600101906020018083116109d157829003601f168201915b5050505050905060006109ff611317565b9050600081511415610a15578192505050610a58565b600082511115610a4a578082604051602001610a32929190611fdb565b60405160208183030381529060405292505050610a58565b610a538461132e565b925050505b919050565b6000600560008473ffffffffffffffffffffffffffffffffffffffff1673ffffffffffffffffffffffffffffffffffffffff16815260200190815260200160002060008373ffffffffffffffffffffffffffffffffffffffff1673ffffffffffffffffffffffffffffffffffffffff16815260200190815260200160002060009054906101000a900460ff16905092915050565b610b8781604051602401610b059190612081565b6040516020818303038152906040527f41304fac000000000000000000000000000000000000000000000000000000007bffffffffffffffffffffffffffffffffffffffffffffffffffffffff19166020820180517bffffffffffffffffffffffffffffffffffffffffffffffffffffffff8381831617835250505050611396565b50565b60007f01ffc9a7000000000000000000000000000000000000000000000000000000007bffffffffffffffffffffffffffffffffffffffffffffffffffffffff1916827bffffffffffffffffffffffffffffffffffffffffffffffffffffffff1916149050919050565b610bfd816113bf565b610c3c576040517f08c379a0000000000000000000000000000000000000000000000000000000008152600401610c33906121f3565b60405180910390fd5b50565b600033905090565b816004600083815260200190815260200160002060006101000a81548173ffffffffffffffffffffffffffffffffffffffff021916908373ffffffffffffffffffffffffffffffffffffffff160217905550808273ffffffffffffffffffffffffffffffffffffffff16610cba836106d6565b73ffffffffffffffffffffffffffffffffffffffff167f8c5be1e5ebec7d5bd14f71427d1e84f3dd0314c0f7b2291e5b200ac8c7c3b92560405160405180910390a45050565b600081600001549050919050565b610da68282604051602401610d249291906120a3565b6040516020818303038152906040527f9710a9d0000000000000000000000000000000000000000000000000000000007bffffffffffffffffffffffffffffffffffffffffffffffffffffffff19166020820180517bffffffffffffffffffffffffffffffffffffffffffffffffffffffff8381831617835250505050611396565b5050565b610dc482826040518060200160405280600081525061142b565b5050565b610dd1826113bf565b610e10576040517f08c379a0000000000000000000000000000000000000000000000000000000008152600401610e0790612193565b60405180910390fd5b80600660008481526020019081526020016000209080519060200190610e379291906119d1565b505050565b6001816000016000828254019250508190555050565b600080610e5e836106d6565b90508073ffffffffffffffffffffffffffffffffffffffff168473ffffffffffffffffffffffffffffffffffffffff161480610ea05750610e9f8185610a5d565b5b80610ede57508373ffffffffffffffffffffffffffffffffffffffff16610ec684610455565b73ffffffffffffffffffffffffffffffffffffffff16145b91505092915050565b8273ffffffffffffffffffffffffffffffffffffffff16610f07826106d6565b73ffffffffffffffffffffffffffffffffffffffff1614610f5d576040517f08c379a0000000000000000000000000000000000000000000000000000000008152600401610f54906120f3565b60405180910390fd5b600073ffffffffffffffffffffffffffffffffffffffff168273ffffffffffffffffffffffffffffffffffffffff161415610fcd576040517f08c379a0000000000000000000000000000000000000000000000000000000008152600401610fc490612133565b60405180910390fd5b610fd8838383611486565b610fe3600082610c47565b6001600360008573ffffffffffffffffffffffffffffffffffffffff1673ffffffffffffffffffffffffffffffffffffffff1681526020019081526020016000206000828254611033919061238e565b925050819055506001600360008473ffffffffffffffffffffffffffffffffffffffff1673ffffffffffffffffffffffffffffffffffffffff168152602001908152602001600020600082825461108a9190612307565b92505081905550816002600083815260200190815260200160002060006101000a81548173ffffffffffffffffffffffffffffffffffffffff021916908373ffffffffffffffffffffffffffffffffffffffff160217905550808273ffffffffffffffffffffffffffffffffffffffff168473ffffffffffffffffffffffffffffffffffffffff167fddf252ad1be2c89b69c2b068fc378daa952ba7f163c4a11628f55a4df523b3ef60405160405180910390a461114983838361148b565b505050565b8173ffffffffffffffffffffffffffffffffffffffff168373ffffffffffffffffffffffffffffffffffffffff1614156111bd576040517f08c379a00000000000000000000000000000000000000000000000000000000081526004016111b490612153565b60405180910390fd5b80600560008573ffffffffffffffffffffffffffffffffffffffff1673ffffffffffffffffffffffffffffffffffffffff16815260200190815260200160002060008473ffffffffffffffffffffffffffffffffffffffff1673ffffffffffffffffffffffffffffffffffffffff16815260200190815260200160002060006101000a81548160ff0219169083151502179055508173ffffffffffffffffffffffffffffffffffffffff168373ffffffffffffffffffffffffffffffffffffffff167f17307eab39ab6107e8899845ad3d59bd9653f200f220920489ca2b5937696c31836040516112ae9190612066565b60405180910390a3505050565b6112c6848484610ee7565b6112d284848484611490565b611311576040517f08c379a0000000000000000000000000000000000000000000000000000000008152600401611308906120d3565b60405180910390fd5b50505050565b606060405180602001604052806000815250905090565b606061133982610bf4565b6000611343611317565b90506000815111611363576040518060200160405280600081525061138e565b8061136d84611627565b60405160200161137e929190611fdb565b6040516020818303038152906040525b915050919050565b60008151905060006a636f6e736f6c652e6c6f679050602083016000808483855afa5050505050565b60008073ffffffffffffffffffffffffffffffffffffffff166002600084815260200190815260200160002060009054906101000a900473ffffffffffffffffffffffffffffffffffffffff1673ffffffffffffffffffffffffffffffffffffffff1614159050919050565b61143583836117d4565b6114426000848484611490565b611481576040517f08c379a0000000000000000000000000000000000000000000000000000000008152600401611478906120d3565b60405180910390fd5b505050565b505050565b505050565b60006114b18473ffffffffffffffffffffffffffffffffffffffff166119ae565b1561161a578373ffffffffffffffffffffffffffffffffffffffff1663150b7a026114da610c3f565b8786866040518563ffffffff1660e01b81526004016114fc949392919061201a565b602060405180830381600087803b15801561151657600080fd5b505af192505050801561154757506040513d601f19601f820116820180604052508101906115449190611d15565b60015b6115ca573d8060008114611577576040519150601f19603f3d011682016040523d82523d6000602084013e61157c565b606091505b506000815114156115c2576040517f08c379a00000000000000000000000000000000000000000000000000000000081526004016115b9906120d3565b60405180910390fd5b805181602001fd5b63150b7a0260e01b7bffffffffffffffffffffffffffffffffffffffffffffffffffffffff1916817bffffffffffffffffffffffffffffffffffffffffffffffffffffffff19161491505061161f565b600190505b949350505050565b6060600082141561166f576040518060400160405280600181526020017f300000000000000000000000000000000000000000000000000000000000000081525090506117cf565b600082905060005b600082146116a157808061168a906124db565b915050600a8261169a919061235d565b9150611677565b60008167ffffffffffffffff8111156116e3577f4e487b7100000000000000000000000000000000000000000000000000000000600052604160045260246000fd5b6040519080825280601f01601f1916602001820160405280156117155781602001600182028036833780820191505090505b5090505b600085146117c85760018261172e919061238e565b9150600a8561173d9190612524565b60306117499190612307565b60f81b818381518110611785577f4e487b7100000000000000000000000000000000000000000000000000000000600052603260045260246000fd5b60200101907effffffffffffffffffffffffffffffffffffffffffffffffffffffffffffff1916908160001a905350600a856117c1919061235d565b9450611719565b8093505050505b919050565b600073ffffffffffffffffffffffffffffffffffffffff168273ffffffffffffffffffffffffffffffffffffffff161415611844576040517f08c379a000000000000000000000000000000000000000000000000000000000815260040161183b906121d3565b60405180910390fd5b61184d816113bf565b1561188d576040517f08c379a000000000000000000000000000000000000000000000000000000000815260040161188490612113565b60405180910390fd5b61189960008383611486565b6001600360008473ffffffffffffffffffffffffffffffffffffffff1673ffffffffffffffffffffffffffffffffffffffff16815260200190815260200160002060008282546118e99190612307565b92505081905550816002600083815260200190815260200160002060006101000a81548173ffffffffffffffffffffffffffffffffffffffff021916908373ffffffffffffffffffffffffffffffffffffffff160217905550808273ffffffffffffffffffffffffffffffffffffffff16600073ffffffffffffffffffffffffffffffffffffffff167fddf252ad1be2c89b69c2b068fc378daa952ba7f163c4a11628f55a4df523b3ef60405160405180910390a46119aa6000838361148b565b5050565b6000808273ffffffffffffffffffffffffffffffffffffffff163b119050919050565b8280546119dd90612478565b90600052602060002090601f0160209004810192826119ff5760008555611a46565b82601f10611a1857805160ff1916838001178555611a46565b82800160010185558215611a46579182015b82811115611a45578251825591602001919060010190611a2a565b5b509050611a539190611a57565b5090565b5b80821115611a70576000816000905550600101611a58565b5090565b6000611a87611a8284612293565b61226e565b905082815260208101848484011115611a9f57600080fd5b611aaa848285612436565b509392505050565b600081359050611ac18161293e565b92915050565b600081359050611ad681612955565b92915050565b600081359050611aeb8161296c565b92915050565b600081519050611b008161296c565b92915050565b600082601f830112611b1757600080fd5b8135611b27848260208601611a74565b91505092915050565b600081359050611b3f81612983565b92915050565b600060208284031215611b5757600080fd5b6000611b6584828501611ab2565b91505092915050565b60008060408385031215611b8157600080fd5b6000611b8f85828601611ab2565b9250506020611ba085828601611ab2565b9150509250929050565b600080600060608486031215611bbf57600080fd5b6000611bcd86828701611ab2565b9350506020611bde86828701611ab2565b9250506040611bef86828701611b30565b9150509250925092565b60008060008060808587031215611c0f57600080fd5b6000611c1d87828801611ab2565b9450506020611c2e87828801611ab2565b9350506040611c3f87828801611b30565b925050606085013567ffffffffffffffff811115611c5c57600080fd5b611c6887828801611b06565b91505092959194509250565b60008060408385031215611c8757600080fd5b6000611c9585828601611ab2565b9250506020611ca685828601611ac7565b9150509250929050565b60008060408385031215611cc357600080fd5b6000611cd185828601611ab2565b9250506020611ce285828601611b30565b9150509250929050565b600060208284031215611cfe57600080fd5b6000611d0c84828501611adc565b91505092915050565b600060208284031215611d2757600080fd5b6000611d3584828501611af1565b91505092915050565b600060208284031215611d5057600080fd5b6000611d5e84828501611b30565b91505092915050565b611d70816123c2565b82525050565b611d7f816123d4565b82525050565b6000611d90826122c4565b611d9a81856122da565b9350611daa818560208601612445565b611db381612611565b840191505092915050565b6000611dc9826122cf565b611dd381856122eb565b9350611de3818560208601612445565b611dec81612611565b840191505092915050565b6000611e02826122cf565b611e0c81856122fc565b9350611e1c818560208601612445565b80840191505092915050565b6000611e356032836122eb565b9150611e4082612622565b604082019050919050565b6000611e586025836122eb565b9150611e6382612671565b604082019050919050565b6000611e7b601c836122eb565b9150611e86826126c0565b602082019050919050565b6000611e9e6024836122eb565b9150611ea9826126e9565b604082019050919050565b6000611ec16019836122eb565b9150611ecc82612738565b602082019050919050565b6000611ee46029836122eb565b9150611eef82612761565b604082019050919050565b6000611f07602e836122eb565b9150611f12826127b0565b604082019050919050565b6000611f2a603e836122eb565b9150611f35826127ff565b604082019050919050565b6000611f4d6020836122eb565b9150611f588261284e565b602082019050919050565b6000611f706018836122eb565b9150611f7b82612877565b602082019050919050565b6000611f936021836122eb565b9150611f9e826128a0565b604082019050919050565b6000611fb6602e836122eb565b9150611fc1826128ef565b604082019050919050565b611fd58161242c565b82525050565b6000611fe78285611df7565b9150611ff38284611df7565b91508190509392505050565b60006020820190506120146000830184611d67565b92915050565b600060808201905061202f6000830187611d67565b61203c6020830186611d67565b6120496040830185611fcc565b818103606083015261205b8184611d85565b905095945050505050565b600060208201905061207b6000830184611d76565b92915050565b6000602082019050818103600083015261209b8184611dbe565b905092915050565b600060408201905081810360008301526120bd8185611dbe565b90506120cc6020830184611fcc565b9392505050565b600060208201905081810360008301526120ec81611e28565b9050919050565b6000602082019050818103600083015261210c81611e4b565b9050919050565b6000602082019050818103600083015261212c81611e6e565b9050919050565b6000602082019050818103600083015261214c81611e91565b9050919050565b6000602082019050818103600083015261216c81611eb4565b9050919050565b6000602082019050818103600083015261218c81611ed7565b9050919050565b600060208201905081810360008301526121ac81611efa565b9050919050565b600060208201905081810360008301526121cc81611f1d565b9050919050565b600060208201905081810360008301526121ec81611f40565b9050919050565b6000602082019050818103600083015261220c81611f63565b9050919050565b6000602082019050818103600083015261222c81611f86565b9050919050565b6000602082019050818103600083015261224c81611fa9565b9050919050565b60006020820190506122686000830184611fcc565b92915050565b6000612278612289565b905061228482826124aa565b919050565b6000604051905090565b600067ffffffffffffffff8211156122ae576122ad6125e2565b5b6122b782612611565b9050602081019050919050565b600081519050919050565b600081519050919050565b600082825260208201905092915050565b600082825260208201905092915050565b600081905092915050565b60006123128261242c565b915061231d8361242c565b9250827fffffffffffffffffffffffffffffffffffffffffffffffffffffffffffffffff0382111561235257612351612555565b5b828201905092915050565b60006123688261242c565b91506123738361242c565b92508261238357612382612584565b5b828204905092915050565b60006123998261242c565b91506123a48361242c565b9250828210156123b7576123b6612555565b5b828203905092915050565b60006123cd8261240c565b9050919050565b60008115159050919050565b60007fffffffff0000000000000000000000000000000000000000000000000000000082169050919050565b600073ffffffffffffffffffffffffffffffffffffffff82169050919050565b6000819050919050565b82818337600083830152505050565b60005b83811015612463578082015181840152602081019050612448565b83811115612472576000848401525b50505050565b6000600282049050600182168061249057607f821691505b602082108114156124a4576124a36125b3565b5b50919050565b6124b382612611565b810181811067ffffffffffffffff821117156124d2576124d16125e2565b5b80604052505050565b60006124e68261242c565b91507fffffffffffffffffffffffffffffffffffffffffffffffffffffffffffffffff82141561251957612518612555565b5b600182019050919050565b600061252f8261242c565b915061253a8361242c565b92508261254a57612549612584565b5b828206905092915050565b7f4e487b7100000000000000000000000000000000000000000000000000000000600052601160045260246000fd5b7f4e487b7100000000000000000000000000000000000000000000000000000000600052601260045260246000fd5b7f4e487b7100000000000000000000000000000000000000000000000000000000600052602260045260246000fd5b7f4e487b7100000000000000000000000000000000000000000000000000000000600052604160045260246000fd5b6000601f19601f8301169050919050565b7f4552433732313a207472616e7366657220746f206e6f6e20455243373231526560008201527f63656976657220696d706c656d656e7465720000000000000000000000000000602082015250565b7f4552433732313a207472616e736665722066726f6d20696e636f72726563742060008201527f6f776e6572000000000000000000000000000000000000000000000000000000602082015250565b7f4552433732313a20746f6b656e20616c7265616479206d696e74656400000000600082015250565b7f4552433732313a207472616e7366657220746f20746865207a65726f2061646460008201527f7265737300000000000000000000000000000000000000000000000000000000602082015250565b7f4552433732313a20617070726f766520746f2063616c6c657200000000000000600082015250565b7f4552433732313a2061646472657373207a65726f206973206e6f74206120766160008201527f6c6964206f776e65720000000000000000000000000000000000000000000000602082015250565b7f45524337323155524953746f726167653a2055524920736574206f66206e6f6e60008201527f6578697374656e7420746f6b656e000000000000000000000000000000000000602082015250565b7f4552433732313a20617070726f76652063616c6c6572206973206e6f7420746f60008201527f6b656e206f776e6572206e6f7220617070726f76656420666f7220616c6c0000602082015250565b7f4552433732313a206d696e7420746f20746865207a65726f2061646472657373600082015250565b7f4552433732313a20696e76616c696420746f6b656e2049440000000000000000600082015250565b7f4552433732313a20617070726f76616c20746f2063757272656e74206f776e6560008201527f7200000000000000000000000000000000000000000000000000000000000000602082015250565b7f4552433732313a2063616c6c6572206973206e6f7420746f6b656e206f776e6560008201527f72206e6f7220617070726f766564000000000000000000000000000000000000602082015250565b612947816123c2565b811461295257600080fd5b50565b61295e816123d4565b811461296957600080fd5b50565b612975816123e0565b811461298057600080fd5b50565b61298c8161242c565b811461299757600080fd5b5056fea2646970667358221220432cf03d72021cf9a05e1fad227aa9d03ca934386d26e99480f3b43d4d2d767364736f6c63430008010033",
  "linkReferences": {},
  "deployedLinkReferences": {}
}