{
  "_format": "hh-sol-artifact-1",
  "contractName": "IPFSHosting",
  "sourceName": "contracts/NFT_IPFS_Hosting.sol",
  "abi": [
    {
      "inputs": [],
      "stateMutability": "nonpayable",
      "type": "constructor"
    },
    {
      "anonymous": false,
      "inputs": [
        {
          "indexed": true,
          "internalType": "address",
          "name": "owner",
          "type": "address"
        },
        {
          "indexed": true,
          "internalType": "address",
          "name": "approved",
          "type": "address"
        },
        {
          "indexed": true,
          "internalType": "uint256",
          "name": "tokenId",
          "type": "uint256"
        }
      ],
      "name": "Approval",
      "type": "event"
    },
    {
      "anonymous": false,
      "inputs": [
        {
          "indexed": true,
          "internalType": "address",
          "name": "owner",
          "type": "address"
        },
        {
          "indexed": true,
          "internalType": "address",
          "name": "operator",
          "type": "address"
        },
        {
          "indexed": false,
          "internalType": "bool",
          "name": "approved",
          "type": "bool"
        }
      ],
      "name": "ApprovalForAll",
      "type": "event"
    },
    {
      "anonymous": false,
      "inputs": [
        {
          "indexed": true,
          "internalType": "address",
          "name": "from",
          "type": "address"
        },
        {
          "indexed": true,
          "internalType": "address",
          "name": "to",
          "type": "address"
        },
        {
          "indexed": true,
          "internalType": "uint256",
          "name": "tokenId",
          "type": "uint256"
        }
      ],
      "name": "Transfer",
      "type": "event"
    },
    {
      "inputs": [
        {
          "internalType": "address",
          "name": "to",
          "type": "address"
        },
        {
          "internalType": "uint256",
          "name": "tokenId",
          "type": "uint256"
        }
      ],
      "name": "approve",
      "outputs": [],
      "stateMutability": "nonpayable",
      "type": "function"
    },
    {
      "inputs": [
        {
          "internalType": "address",
          "name": "owner",
          "type": "address"
        }
      ],
      "name": "balanceOf",
      "outputs": [
        {
          "internalType": "uint256",
          "name": "",
          "type": "uint256"
        }
      ],
      "stateMutability": "view",
      "type": "function"
    },
    {
      "inputs": [
        {
          "internalType": "uint256",
          "name": "tokenId",
          "type": "uint256"
        }
      ],
      "name": "getApproved",
      "outputs": [
        {
          "internalType": "address",
          "name": "",
          "type": "address"
        }
      ],
      "stateMutability": "view",
      "type": "function"
    },
    {
      "inputs": [
        {
          "internalType": "address",
          "name": "owner",
          "type": "address"
        },
        {
          "internalType": "address",
          "name": "operator",
          "type": "address"
        }
      ],
      "name": "isApprovedForAll",
      "outputs": [
        {
          "internalType": "bool",
          "name": "",
          "type": "bool"
        }
      ],
      "stateMutability": "view",
      "type": "function"
    },
    {
      "inputs": [],
      "name": "mintTheNFT",
      "outputs": [],
      "stateMutability": "nonpayable",
      "type": "function"
    },
    {
      "inputs": [],
      "name": "name",
      "outputs": [
        {
          "internalType": "string",
          "name": "",
          "type": "string"
        }
      ],
      "stateMutability": "view",
      "type": "function"
    },
    {
      "inputs": [
        {
          "internalType": "uint256",
          "name": "tokenId",
          "type": "uint256"
        }
      ],
      "name": "ownerOf",
      "outputs": [
        {
          "internalType": "address",
          "name": "",
          "type": "address"
        }
      ],
      "stateMutability": "view",
      "type": "function"
    },
    {
      "inputs": [
        {
          "internalType": "address",
          "name": "from",
          "type": "address"
        },
        {
          "internalType": "address",
          "name": "to",
          "type": "address"
        },
        {
          "internalType": "uint256",
          "name": "tokenId",
          "type": "uint256"
        }
      ],
      "name": "safeTransferFrom",
      "outputs": [],
      "stateMutability": "nonpayable",
      "type": "function"
    },
    {
      "inputs": [
        {
          "internalType": "address",
          "name": "from",
          "type": "address"
        },
        {
          "internalType": "address",
          "name": "to",
          "type": "address"
        },
        {
          "internalType": "uint256",
          "name": "tokenId",
          "type": "uint256"
        },
        {
          "internalType": "bytes",
          "name": "data",
          "type": "bytes"
        }
      ],
      "name": "safeTransferFrom",
      "outputs": [],
      "stateMutability": "nonpayable",
      "type": "function"
    },
    {
      "inputs": [
        {
          "internalType": "address",
          "name": "operator",
          "type": "address"
        },
        {
          "internalType": "bool",
          "name": "approved",
          "type": "bool"
        }
      ],
      "name": "setApprovalForAll",
      "outputs": [],
      "stateMutability": "nonpayable",
      "type": "function"
    },
    {
      "inputs": [
        {
          "internalType": "bytes4",
          "name": "interfaceId",
          "type": "bytes4"
        }
      ],
      "name": "supportsInterface",
      "outputs": [
        {
          "internalType": "bool",
          "name": "",
          "type": "bool"
        }
      ],
      "stateMutability": "view",
      "type": "function"
    },
    {
      "inputs": [],
      "name": "symbol",
      "outputs": [
        {
          "internalType": "string",
          "name": "",
          "type": "string"
        }
      ],
      "stateMutability": "view",
      "type": "function"
    },
    {
      "inputs": [
        {
          "internalType": "uint256",
          "name": "tokenId",
          "type": "uint256"
        }
      ],
      "name": "tokenURI",
      "outputs": [
        {
          "internalType": "string",
          "name": "",
          "type": "string"
        }
      ],
      "stateMutability": "view",
      "type": "function"
    },
    {
      "inputs": [
        {
          "internalType": "address",
          "name": "from",
          "type": "address"
        },
        {
          "internalType": "address",
          "name": "to",
          "type": "address"
        },
        {
          "internalType": "uint256",
          "name": "tokenId",
          "type": "uint256"
        }
      ],
      "name": "transferFrom",
      "outputs": [],
      "stateMutability": "nonpayable",
      "type": "function"
    }
  ],
  "bytecode": "0x60806040523480156200001157600080fd5b506040518060400160405280600981526020017f4252415a494c4e465400000000000000000000000000000000000000000000008152506040518060400160405280600681526020017f4252414e46540000000000000000000000000000000000000000000000000000815250816000908051906020019062000096929190620001cf565b508060019080519060200190620000af929190620001cf565b505050620000fd6040518060400160405280601981526020017f546865204e465420457468657265756d20436f6e7472616374000000000000008152506200010360201b62000b141760201c565b620003ac565b620001a3816040516024016200011a9190620002c0565b6040516020818303038152906040527f41304fac000000000000000000000000000000000000000000000000000000007bffffffffffffffffffffffffffffffffffffffffffffffffffffffff19166020820180517bffffffffffffffffffffffffffffffffffffffffffffffffffffffff8381831617835250505050620001a660201b60201c565b50565b60008151905060006a636f6e736f6c652e6c6f679050602083016000808483855afa5050505050565b828054620001dd9062000336565b90600052602060002090601f0160209004810192826200020157600085556200024d565b82601f106200021c57805160ff19168380011785556200024d565b828001600101855582156200024d579182015b828111156200024c5782518255916020019190600101906200022f565b5b5090506200025c919062000260565b5090565b5b808211156200027b57600081600090555060010162000261565b5090565b60006200028c82620002e4565b620002988185620002ef565b9350620002aa81856020860162000300565b620002b5816200039b565b840191505092915050565b60006020820190508181036000830152620002dc81846200027f565b905092915050565b600081519050919050565b600082825260208201905092915050565b60005b838110156200032057808201518184015260208101905062000303565b8381111562000330576000848401525b50505050565b600060028204905060018216806200034f57607f821691505b602082108114156200036657620003656200036c565b5b50919050565b7f4e487b7100000000000000000000000000000000000000000000000000000000600052602260045260246000fd5b6000601f19601f8301169050919050565b612af580620003bc6000396000f3fe608060405234801561001057600080fd5b50600436106100ea5760003560e01c80636352211e1161008c578063a22cb46511610066578063a22cb46514610249578063b88d4fde14610265578063c87b56dd14610281578063e985e9c5146102b1576100ea565b80636352211e146101cb57806370a08231146101fb57806395d89b411461022b576100ea565b8063095ea7b3116100c8578063095ea7b31461016d5780632043881c1461018957806323b872dd1461019357806342842e0e146101af576100ea565b806301ffc9a7146100ef57806306fdde031461011f578063081812fc1461013d575b600080fd5b61010960048036038101906101049190611dae565b6102e1565b6040516101169190612128565b60405180910390f35b6101276103c3565b6040516101349190612143565b60405180910390f35b61015760048036038101906101529190611e00565b610455565b60405161016491906120c1565b60405180910390f35b61018760048036038101906101829190611d72565b61049b565b005b6101916105b3565b005b6101ad60048036038101906101a89190611c6c565b610679565b005b6101c960048036038101906101c49190611c6c565b6106d9565b005b6101e560048036038101906101e09190611e00565b6106f9565b6040516101f291906120c1565b60405180910390f35b61021560048036038101906102109190611c07565b6107ab565b6040516102229190612353565b60405180910390f35b610233610863565b6040516102409190612143565b60405180910390f35b610263600480360381019061025e9190611d36565b6108f5565b005b61027f600480360381019061027a9190611cbb565b61090b565b005b61029b60048036038101906102969190611e00565b61096d565b6040516102a89190612143565b60405180910390f35b6102cb60048036038101906102c69190611c30565b610a80565b6040516102d89190612128565b60405180910390f35b60007f80ac58cd000000000000000000000000000000000000000000000000000000007bffffffffffffffffffffffffffffffffffffffffffffffffffffffff1916827bffffffffffffffffffffffffffffffffffffffffffffffffffffffff191614806103ac57507f5b5e139f000000000000000000000000000000000000000000000000000000007bffffffffffffffffffffffffffffffffffffffffffffffffffffffff1916827bffffffffffffffffffffffffffffffffffffffffffffffffffffffff1916145b806103bc57506103bb82610bad565b5b9050919050565b6060600080546103d290612578565b80601f01602080910402602001604051908101604052809291908181526020018280546103fe90612578565b801561044b5780601f106104205761010080835404028352916020019161044b565b820191906000526020600020905b81548152906001019060200180831161042e57829003601f168201915b5050505050905090565b600061046082610c17565b6004600083815260200190815260200160002060009054906101000a900473ffffffffffffffffffffffffffffffffffffffff169050919050565b60006104a6826106f9565b90508073ffffffffffffffffffffffffffffffffffffffff168373ffffffffffffffffffffffffffffffffffffffff161415610517576040517f08c379a000000000000000000000000000000000000000000000000000000000815260040161050e90612313565b60405180910390fd5b8073ffffffffffffffffffffffffffffffffffffffff16610536610c62565b73ffffffffffffffffffffffffffffffffffffffff16148061056557506105648161055f610c62565b610a80565b5b6105a4576040517f08c379a000000000000000000000000000000000000000000000000000000000815260040161059b906122b3565b60405180910390fd5b6105ae8383610c6a565b505050565b60006105bf6007610d23565b90506106006040518060400160405280601281526020017f746865206e667420746f6b656e2069733a20000000000000000000000000000081525082610d31565b61060a3382610dcd565b610649816040518060400160405280601d81526020017f68747470733a2f2f6a736f6e6b65657065722e636f6d2f622f46474e34000000815250610deb565b6106536007610e5f565b610676604051806060016040528060258152602001612a9b602591398233610e75565b50565b61068a610684610c62565b82610f14565b6106c9576040517f08c379a00000000000000000000000000000000000000000000000000000000081526004016106c090612333565b60405180910390fd5b6106d4838383610fa9565b505050565b6106f48383836040518060200160405280600081525061090b565b505050565b6000806002600084815260200190815260200160002060009054906101000a900473ffffffffffffffffffffffffffffffffffffffff169050600073ffffffffffffffffffffffffffffffffffffffff168173ffffffffffffffffffffffffffffffffffffffff1614156107a2576040517f08c379a0000000000000000000000000000000000000000000000000000000008152600401610799906122f3565b60405180910390fd5b80915050919050565b60008073ffffffffffffffffffffffffffffffffffffffff168273ffffffffffffffffffffffffffffffffffffffff16141561081c576040517f08c379a000000000000000000000000000000000000000000000000000000000815260040161081390612273565b60405180910390fd5b600360008373ffffffffffffffffffffffffffffffffffffffff1673ffffffffffffffffffffffffffffffffffffffff168152602001908152602001600020549050919050565b60606001805461087290612578565b80601f016020809104026020016040519081016040528092919081815260200182805461089e90612578565b80156108eb5780601f106108c0576101008083540402835291602001916108eb565b820191906000526020600020905b8154815290600101906020018083116108ce57829003601f168201915b5050505050905090565b610907610900610c62565b8383611210565b5050565b61091c610916610c62565b83610f14565b61095b576040517f08c379a000000000000000000000000000000000000000000000000000000000815260040161095290612333565b60405180910390fd5b6109678484848461137d565b50505050565b606061097882610c17565b600060066000848152602001908152602001600020805461099890612578565b80601f01602080910402602001604051908101604052809291908181526020018280546109c490612578565b8015610a115780601f106109e657610100808354040283529160200191610a11565b820191906000526020600020905b8154815290600101906020018083116109f457829003601f168201915b505050505090506000610a226113d9565b9050600081511415610a38578192505050610a7b565b600082511115610a6d578082604051602001610a5592919061209d565b60405160208183030381529060405292505050610a7b565b610a76846113f0565b925050505b919050565b6000600560008473ffffffffffffffffffffffffffffffffffffffff1673ffffffffffffffffffffffffffffffffffffffff16815260200190815260200160002060008373ffffffffffffffffffffffffffffffffffffffff1673ffffffffffffffffffffffffffffffffffffffff16815260200190815260200160002060009054906101000a900460ff16905092915050565b610baa81604051602401610b289190612143565b6040516020818303038152906040527f41304fac000000000000000000000000000000000000000000000000000000007bffffffffffffffffffffffffffffffffffffffffffffffffffffffff19166020820180517bffffffffffffffffffffffffffffffffffffffffffffffffffffffff8381831617835250505050611458565b50565b60007f01ffc9a7000000000000000000000000000000000000000000000000000000007bffffffffffffffffffffffffffffffffffffffffffffffffffffffff1916827bffffffffffffffffffffffffffffffffffffffffffffffffffffffff1916149050919050565b610c2081611481565b610c5f576040517f08c379a0000000000000000000000000000000000000000000000000000000008152600401610c56906122f3565b60405180910390fd5b50565b600033905090565b816004600083815260200190815260200160002060006101000a81548173ffffffffffffffffffffffffffffffffffffffff021916908373ffffffffffffffffffffffffffffffffffffffff160217905550808273ffffffffffffffffffffffffffffffffffffffff16610cdd836106f9565b73ffffffffffffffffffffffffffffffffffffffff167f8c5be1e5ebec7d5bd14f71427d1e84f3dd0314c0f7b2291e5b200ac8c7c3b92560405160405180910390a45050565b600081600001549050919050565b610dc98282604051602401610d47929190612165565b6040516020818303038152906040527f9710a9d0000000000000000000000000000000000000000000000000000000007bffffffffffffffffffffffffffffffffffffffffffffffffffffffff19166020820180517bffffffffffffffffffffffffffffffffffffffffffffffffffffffff8381831617835250505050611458565b5050565b610de78282604051806020016040528060008152506114ed565b5050565b610df482611481565b610e33576040517f08c379a0000000000000000000000000000000000000000000000000000000008152600401610e2a90612293565b60405180910390fd5b80600660008481526020019081526020016000209080519060200190610e5a929190611a93565b505050565b6001816000016000828254019250508190555050565b610f0f838383604051602401610e8d93929190612195565b6040516020818303038152906040527fe3849f79000000000000000000000000000000000000000000000000000000007bffffffffffffffffffffffffffffffffffffffffffffffffffffffff19166020820180517bffffffffffffffffffffffffffffffffffffffffffffffffffffffff8381831617835250505050611458565b505050565b600080610f20836106f9565b90508073ffffffffffffffffffffffffffffffffffffffff168473ffffffffffffffffffffffffffffffffffffffff161480610f625750610f618185610a80565b5b80610fa057508373ffffffffffffffffffffffffffffffffffffffff16610f8884610455565b73ffffffffffffffffffffffffffffffffffffffff16145b91505092915050565b8273ffffffffffffffffffffffffffffffffffffffff16610fc9826106f9565b73ffffffffffffffffffffffffffffffffffffffff161461101f576040517f08c379a0000000000000000000000000000000000000000000000000000000008152600401611016906121f3565b60405180910390fd5b600073ffffffffffffffffffffffffffffffffffffffff168273ffffffffffffffffffffffffffffffffffffffff16141561108f576040517f08c379a000000000000000000000000000000000000000000000000000000000815260040161108690612233565b60405180910390fd5b61109a838383611548565b6110a5600082610c6a565b6001600360008573ffffffffffffffffffffffffffffffffffffffff1673ffffffffffffffffffffffffffffffffffffffff16815260200190815260200160002060008282546110f5919061248e565b925050819055506001600360008473ffffffffffffffffffffffffffffffffffffffff1673ffffffffffffffffffffffffffffffffffffffff168152602001908152602001600020600082825461114c9190612407565b92505081905550816002600083815260200190815260200160002060006101000a81548173ffffffffffffffffffffffffffffffffffffffff021916908373ffffffffffffffffffffffffffffffffffffffff160217905550808273ffffffffffffffffffffffffffffffffffffffff168473ffffffffffffffffffffffffffffffffffffffff167fddf252ad1be2c89b69c2b068fc378daa952ba7f163c4a11628f55a4df523b3ef60405160405180910390a461120b83838361154d565b505050565b8173ffffffffffffffffffffffffffffffffffffffff168373ffffffffffffffffffffffffffffffffffffffff16141561127f576040517f08c379a000000000000000000000000000000000000000000000000000000000815260040161127690612253565b60405180910390fd5b80600560008573ffffffffffffffffffffffffffffffffffffffff1673ffffffffffffffffffffffffffffffffffffffff16815260200190815260200160002060008473ffffffffffffffffffffffffffffffffffffffff1673ffffffffffffffffffffffffffffffffffffffff16815260200190815260200160002060006101000a81548160ff0219169083151502179055508173ffffffffffffffffffffffffffffffffffffffff168373ffffffffffffffffffffffffffffffffffffffff167f17307eab39ab6107e8899845ad3d59bd9653f200f220920489ca2b5937696c31836040516113709190612128565b60405180910390a3505050565b611388848484610fa9565b61139484848484611552565b6113d3576040517f08c379a00000000000000000000000000000000000000000000000000000000081526004016113ca906121d3565b60405180910390fd5b50505050565b606060405180602001604052806000815250905090565b60606113fb82610c17565b60006114056113d9565b905060008151116114255760405180602001604052806000815250611450565b8061142f846116e9565b60405160200161144092919061209d565b6040516020818303038152906040525b915050919050565b60008151905060006a636f6e736f6c652e6c6f679050602083016000808483855afa5050505050565b60008073ffffffffffffffffffffffffffffffffffffffff166002600084815260200190815260200160002060009054906101000a900473ffffffffffffffffffffffffffffffffffffffff1673ffffffffffffffffffffffffffffffffffffffff1614159050919050565b6114f78383611896565b6115046000848484611552565b611543576040517f08c379a000000000000000000000000000000000000000000000000000000000815260040161153a906121d3565b60405180910390fd5b505050565b505050565b505050565b60006115738473ffffffffffffffffffffffffffffffffffffffff16611a70565b156116dc578373ffffffffffffffffffffffffffffffffffffffff1663150b7a0261159c610c62565b8786866040518563ffffffff1660e01b81526004016115be94939291906120dc565b602060405180830381600087803b1580156115d857600080fd5b505af192505050801561160957506040513d601f19601f820116820180604052508101906116069190611dd7565b60015b61168c573d8060008114611639576040519150601f19603f3d011682016040523d82523d6000602084013e61163e565b606091505b50600081511415611684576040517f08c379a000000000000000000000000000000000000000000000000000000000815260040161167b906121d3565b60405180910390fd5b805181602001fd5b63150b7a0260e01b7bffffffffffffffffffffffffffffffffffffffffffffffffffffffff1916817bffffffffffffffffffffffffffffffffffffffffffffffffffffffff1916149150506116e1565b600190505b949350505050565b60606000821415611731576040518060400160405280600181526020017f30000000000000000000000000000000000000000000000000000000000000008152509050611891565b600082905060005b6000821461176357808061174c906125db565b915050600a8261175c919061245d565b9150611739565b60008167ffffffffffffffff8111156117a5577f4e487b7100000000000000000000000000000000000000000000000000000000600052604160045260246000fd5b6040519080825280601f01601f1916602001820160405280156117d75781602001600182028036833780820191505090505b5090505b6000851461188a576001826117f0919061248e565b9150600a856117ff9190612624565b603061180b9190612407565b60f81b818381518110611847577f4e487b7100000000000000000000000000000000000000000000000000000000600052603260045260246000fd5b60200101907effffffffffffffffffffffffffffffffffffffffffffffffffffffffffffff1916908160001a905350600a85611883919061245d565b94506117db565b8093505050505b919050565b600073ffffffffffffffffffffffffffffffffffffffff168273ffffffffffffffffffffffffffffffffffffffff161415611906576040517f08c379a00000000000000000000000000000000000000000000000000000000081526004016118fd906122d3565b60405180910390fd5b61190f81611481565b1561194f576040517f08c379a000000000000000000000000000000000000000000000000000000000815260040161194690612213565b60405180910390fd5b61195b60008383611548565b6001600360008473ffffffffffffffffffffffffffffffffffffffff1673ffffffffffffffffffffffffffffffffffffffff16815260200190815260200160002060008282546119ab9190612407565b92505081905550816002600083815260200190815260200160002060006101000a81548173ffffffffffffffffffffffffffffffffffffffff021916908373ffffffffffffffffffffffffffffffffffffffff160217905550808273ffffffffffffffffffffffffffffffffffffffff16600073ffffffffffffffffffffffffffffffffffffffff167fddf252ad1be2c89b69c2b068fc378daa952ba7f163c4a11628f55a4df523b3ef60405160405180910390a4611a6c6000838361154d565b5050565b6000808273ffffffffffffffffffffffffffffffffffffffff163b119050919050565b828054611a9f90612578565b90600052602060002090601f016020900481019282611ac15760008555611b08565b82601f10611ada57805160ff1916838001178555611b08565b82800160010185558215611b08579182015b82811115611b07578251825591602001919060010190611aec565b5b509050611b159190611b19565b5090565b5b80821115611b32576000816000905550600101611b1a565b5090565b6000611b49611b4484612393565b61236e565b905082815260208101848484011115611b6157600080fd5b611b6c848285612536565b509392505050565b600081359050611b8381612a3e565b92915050565b600081359050611b9881612a55565b92915050565b600081359050611bad81612a6c565b92915050565b600081519050611bc281612a6c565b92915050565b600082601f830112611bd957600080fd5b8135611be9848260208601611b36565b91505092915050565b600081359050611c0181612a83565b92915050565b600060208284031215611c1957600080fd5b6000611c2784828501611b74565b91505092915050565b60008060408385031215611c4357600080fd5b6000611c5185828601611b74565b9250506020611c6285828601611b74565b9150509250929050565b600080600060608486031215611c8157600080fd5b6000611c8f86828701611b74565b9350506020611ca086828701611b74565b9250506040611cb186828701611bf2565b9150509250925092565b60008060008060808587031215611cd157600080fd5b6000611cdf87828801611b74565b9450506020611cf087828801611b74565b9350506040611d0187828801611bf2565b925050606085013567ffffffffffffffff811115611d1e57600080fd5b611d2a87828801611bc8565b91505092959194509250565b60008060408385031215611d4957600080fd5b6000611d5785828601611b74565b9250506020611d6885828601611b89565b9150509250929050565b60008060408385031215611d8557600080fd5b6000611d9385828601611b74565b9250506020611da485828601611bf2565b9150509250929050565b600060208284031215611dc057600080fd5b6000611dce84828501611b9e565b91505092915050565b600060208284031215611de957600080fd5b6000611df784828501611bb3565b91505092915050565b600060208284031215611e1257600080fd5b6000611e2084828501611bf2565b91505092915050565b611e32816124c2565b82525050565b611e41816124d4565b82525050565b6000611e52826123c4565b611e5c81856123da565b9350611e6c818560208601612545565b611e7581612711565b840191505092915050565b6000611e8b826123cf565b611e9581856123eb565b9350611ea5818560208601612545565b611eae81612711565b840191505092915050565b6000611ec4826123cf565b611ece81856123fc565b9350611ede818560208601612545565b80840191505092915050565b6000611ef76032836123eb565b9150611f0282612722565b604082019050919050565b6000611f1a6025836123eb565b9150611f2582612771565b604082019050919050565b6000611f3d601c836123eb565b9150611f48826127c0565b602082019050919050565b6000611f606024836123eb565b9150611f6b826127e9565b604082019050919050565b6000611f836019836123eb565b9150611f8e82612838565b602082019050919050565b6000611fa66029836123eb565b9150611fb182612861565b604082019050919050565b6000611fc9602e836123eb565b9150611fd4826128b0565b604082019050919050565b6000611fec603e836123eb565b9150611ff7826128ff565b604082019050919050565b600061200f6020836123eb565b915061201a8261294e565b602082019050919050565b60006120326018836123eb565b915061203d82612977565b602082019050919050565b60006120556021836123eb565b9150612060826129a0565b604082019050919050565b6000612078602e836123eb565b9150612083826129ef565b604082019050919050565b6120978161252c565b82525050565b60006120a98285611eb9565b91506120b58284611eb9565b91508190509392505050565b60006020820190506120d66000830184611e29565b92915050565b60006080820190506120f16000830187611e29565b6120fe6020830186611e29565b61210b604083018561208e565b818103606083015261211d8184611e47565b905095945050505050565b600060208201905061213d6000830184611e38565b92915050565b6000602082019050818103600083015261215d8184611e80565b905092915050565b6000604082019050818103600083015261217f8185611e80565b905061218e602083018461208e565b9392505050565b600060608201905081810360008301526121af8186611e80565b90506121be602083018561208e565b6121cb6040830184611e29565b949350505050565b600060208201905081810360008301526121ec81611eea565b9050919050565b6000602082019050818103600083015261220c81611f0d565b9050919050565b6000602082019050818103600083015261222c81611f30565b9050919050565b6000602082019050818103600083015261224c81611f53565b9050919050565b6000602082019050818103600083015261226c81611f76565b9050919050565b6000602082019050818103600083015261228c81611f99565b9050919050565b600060208201905081810360008301526122ac81611fbc565b9050919050565b600060208201905081810360008301526122cc81611fdf565b9050919050565b600060208201905081810360008301526122ec81612002565b9050919050565b6000602082019050818103600083015261230c81612025565b9050919050565b6000602082019050818103600083015261232c81612048565b9050919050565b6000602082019050818103600083015261234c8161206b565b9050919050565b6000602082019050612368600083018461208e565b92915050565b6000612378612389565b905061238482826125aa565b919050565b6000604051905090565b600067ffffffffffffffff8211156123ae576123ad6126e2565b5b6123b782612711565b9050602081019050919050565b600081519050919050565b600081519050919050565b600082825260208201905092915050565b600082825260208201905092915050565b600081905092915050565b60006124128261252c565b915061241d8361252c565b9250827fffffffffffffffffffffffffffffffffffffffffffffffffffffffffffffffff0382111561245257612451612655565b5b828201905092915050565b60006124688261252c565b91506124738361252c565b92508261248357612482612684565b5b828204905092915050565b60006124998261252c565b91506124a48361252c565b9250828210156124b7576124b6612655565b5b828203905092915050565b60006124cd8261250c565b9050919050565b60008115159050919050565b60007fffffffff0000000000000000000000000000000000000000000000000000000082169050919050565b600073ffffffffffffffffffffffffffffffffffffffff82169050919050565b6000819050919050565b82818337600083830152505050565b60005b83811015612563578082015181840152602081019050612548565b83811115612572576000848401525b50505050565b6000600282049050600182168061259057607f821691505b602082108114156125a4576125a36126b3565b5b50919050565b6125b382612711565b810181811067ffffffffffffffff821117156125d2576125d16126e2565b5b80604052505050565b60006125e68261252c565b91507fffffffffffffffffffffffffffffffffffffffffffffffffffffffffffffffff82141561261957612618612655565b5b600182019050919050565b600061262f8261252c565b915061263a8361252c565b92508261264a57612649612684565b5b828206905092915050565b7f4e487b7100000000000000000000000000000000000000000000000000000000600052601160045260246000fd5b7f4e487b7100000000000000000000000000000000000000000000000000000000600052601260045260246000fd5b7f4e487b7100000000000000000000000000000000000000000000000000000000600052602260045260246000fd5b7f4e487b7100000000000000000000000000000000000000000000000000000000600052604160045260246000fd5b6000601f19601f8301169050919050565b7f4552433732313a207472616e7366657220746f206e6f6e20455243373231526560008201527f63656976657220696d706c656d656e7465720000000000000000000000000000602082015250565b7f4552433732313a207472616e736665722066726f6d20696e636f72726563742060008201527f6f776e6572000000000000000000000000000000000000000000000000000000602082015250565b7f4552433732313a20746f6b656e20616c7265616479206d696e74656400000000600082015250565b7f4552433732313a207472616e7366657220746f20746865207a65726f2061646460008201527f7265737300000000000000000000000000000000000000000000000000000000602082015250565b7f4552433732313a20617070726f766520746f2063616c6c657200000000000000600082015250565b7f4552433732313a2061646472657373207a65726f206973206e6f74206120766160008201527f6c6964206f776e65720000000000000000000000000000000000000000000000602082015250565b7f45524337323155524953746f726167653a2055524920736574206f66206e6f6e60008201527f6578697374656e7420746f6b656e000000000000000000000000000000000000602082015250565b7f4552433732313a20617070726f76652063616c6c6572206973206e6f7420746f60008201527f6b656e206f776e6572206e6f7220617070726f76656420666f7220616c6c0000602082015250565b7f4552433732313a206d696e7420746f20746865207a65726f2061646472657373600082015250565b7f4552433732313a20696e76616c696420746f6b656e2049440000000000000000600082015250565b7f4552433732313a20617070726f76616c20746f2063757272656e74206f776e6560008201527f7200000000000000000000000000000000000000000000000000000000000000602082015250565b7f4552433732313a2063616c6c6572206973206e6f7420746f6b656e206f776e6560008201527f72206e6f7220617070726f766564000000000000000000000000000000000000602082015250565b612a47816124c2565b8114612a5257600080fd5b50565b612a5e816124d4565b8114612a6957600080fd5b50565b612a75816124e0565b8114612a8057600080fd5b50565b612a8c8161252c565b8114612a9757600080fd5b5056fe416e204e465420772f20494420257320686173206265656e206d696e74656420746f202573a2646970667358221220eaf8d9fa737376dfdc61f4271cb87af4e6dca93d1b479c57d0da7fa210ee219f64736f6c63430008010033",
  "linkReferences": {},
  "deployedLinkReferences": {}
}